:020000040800F2
:100000006808002089010008E1010008E1010008FA
:10001000E1010008E1010008E10100080000000022
:10002000000000000000000000000000E1010008E6
:10003000E101000800000000E1010008E101000802
:10004000E1010008E1010008E1010008E101000808
:10005000E1010008E1010008E1010008E1010008F8
:10006000E1010008E1010008E1010008E1010008E8
:10007000E1010008E1010008E1010008E1010008D8
:10008000E1010008E1010008E1010008E1010008C8
:10009000E1010008E1010008E1010008E1010008B8
:1000A000E1010008E1010008E1010008E1010008A8
:1000B000E1010008E1010008E1010008E101000898
:1000C000E1010008E1010008E1010008E101000888
:1000D000E1010008E101000835020008E101000823
:1000E000E1010008E1010008E1010008E101000868
:1000F000E1010008E1010008E1010008E101000858
:10010000E1010008E1010008E1010008E101000847
:10011000E1010008E1010008E1010008E101000837
:10012000E1010008E1010008E1010008E101000827
:10013000E1010008E1010008E1010008E101000817
:10014000E1010008E1010008E1010008E101000807
:10015000E1010008E1010008E1010008E1010008F7
:10016000E1010008E1010008E1010008E1010008E7
:10017000E1010008E1010008E1010008E1010008D7
:10018000E1010008E101000880B582B000AF0F4B2B
:100190007B600F4B3B6007E03B681A1D3A607A6852
:1001A000111D796012681A603B680A4A9342F3D3C2
:1001B00009480A494FF000028842B8BF40F8042BB2
:1001C000FADB00F011F80837BD4680BDE4020008F4
:1001D0000000002000000020000000206800002037
:1001E00080B400AFFEE700BF80B500AF024BDBB2CA
:1001F000184600F003F8F9E7E002000880B483B085
:1002000000AF0346FB71094BFA7992B29A80084B12
:1002100001221A7000BF064B1B78DBB2002BFAD10B
:100220000C37BD465DF8047B704700BF00440040BA
:100230000000002080B483B000AF234B1B889BB22A
:1002400003F04003002B0BD01F4A1F4B1B889BB2AF
:1002500023F040039BB213801C4B00221A702EE047
:10026000194B1B889BB203F02003002B27D0164AA2
:10027000154B1B889BB223F020039BB21380124BBB
:100280009B889BB2FB71124B1B78DBB21946114A5B
:10029000FB7953540E4B1B78DBB20133DAB20C4BB3
:1002A0001A70FB790A2B02D10B4B01221A700B4BEF
:1002B0001B78DBB2002B02D0054B00221A700C37E2
:1002C000BD465DF8047B70470044004000000020FC
:1002D0000100002004000020020000200300002094
:0402E00041000000D9
:0400000508000000EF
:00000001FF
