:020000040800F2
:100000007008002089010008E1010008E1010008F2
:10001000E1010008E1010008E10100080000000022
:10002000000000000000000000000000E1010008E6
:10003000E101000800000000E1010008E101000802
:10004000E1010008E1010008E1010008E101000808
:10005000E1010008E1010008E1010008E1010008F8
:10006000E1010008E1010008E1010008E1010008E8
:10007000E1010008E1010008E1010008E1010008D8
:10008000E1010008E1010008E1010008E1010008C8
:10009000E1010008E1010008E1010008E1010008B8
:1000A000E1010008E1010008E1010008E1010008A8
:1000B000E1010008E1010008E1010008E101000898
:1000C000E1010008E1010008E1010008E101000888
:1000D000E1010008E10100088D050008E1010008C8
:1000E000E1010008E1010008E1010008E101000868
:1000F000E1010008E1010008E1010008E101000858
:10010000E1010008E1010008E1010008E101000847
:10011000E1010008E1010008E1010008E101000837
:10012000E1010008E1010008E1010008E101000827
:10013000E1010008E1010008E1010008E101000817
:10014000E1010008E1010008E1010008E101000807
:10015000E1010008E1010008E1010008E1010008F7
:10016000E1010008E1010008E1010008E1010008E7
:10017000E1010008E1010008E1010008E1010008D7
:10018000E1010008E101000880B582B000AF0F4B2B
:100190007B600F4B3B6007E03B681A1D3A607A6852
:1001A000111D796012681A603B680A4A9342F3D3C2
:1001B00009480A494FF000028842B8BF40F8042BB2
:1001C000FADB00F011F80837BD4680BD8D09000844
:1001D0000000002004000020040000206C0000202B
:1001E00080B400AFFEE700BF80B586B000AF4FF42B
:1001F00070433B6000233B6101237B600223FB6073
:100200000023BB6000F010F93B461848194600F087
:1002100033F816484FF4805100F0B4F813484FF407
:10022000005100F0AFF811484FF4804100F0AAF8F7
:100230000E484FF4004100F0A5F800F01BF90C4BFC
:100240007B610C4800F07AF902E07B69013B7B613D
:100250007B69002BF9D1064B7B6104484FF40041C8
:1002600000F0B8F800F0EAF9EEE700BF000C024039
:1002700020A10700DC07000880B485B000AF7860DB
:1002800039600023FB730023BB603B685B68032B72
:1002900073D83B68DB68032B6FD83B689B68022BE5
:1002A0006BD80023FB7365E0FB7B012202FA03F3AA
:1002B0001A463B681B681340002B58D07B681B68AC
:1002C000BB60FB7B5B00032202FA03F3DB431A46AD
:1002D000BB681340BB603B685A68FB7B5B0002FA5B
:1002E00003F3BA681343BB607B68BA681A603B6863
:1002F0005B68012B09D17B685A683B681969FB7BF5
:1003000001FA03F31A437B685A607B68DB68BB60C1
:10031000FB7B5B00032202FA03F3DB431A46BB6854
:100320001340BB603B689A68FB7B5B0002FA03F3F7
:10033000BA681343BB607B68BA68DA607B689B6805
:10034000BB60FB7B5B00032202FA03F3DB431A462C
:10035000BB681340BB603B68DA68FB7B5B0002FA5A
:1003600003F3BA681343BB607B68BA689A60FB7B8F
:100370000133FB73FB7B0F2B96D91437BD465DF819
:10038000047B704780B483B000AF78600B467B80FD
:100390007B681B8B9AB27B8813439AB27B681A8363
:1003A0000C37BD465DF8047B704700BF80B483B056
:1003B00000AF78600B467B807B685B8B9AB27B8852
:1003C00013439AB27B685A830C37BD465DF8047BB1
:1003D000704700BF80B485B000AF78600B467B806B
:1003E0000023FB607B685B69FB607B88B3F5004F93
:1003F00015D87A88FB681340002B08D07B685B8B8C
:100400009AB27B8813439AB27B685A8307E07B6871
:100410001B8B9AB27B8813439AB27B681A8314377A
:10042000BD465DF8047B704780B400AF044A044BBE
:100430001B6B43F008031363BD465DF8047B7047F4
:100440000038024080B483B000AF0346FB71084916
:1004500097F907305B09FA7902F01F02012000FAD0
:1004600002F241F823200C37BD465DF8047B70474B
:1004700000E100E080B500AF1F4A1F4B1B6B43F04B
:10048000080313631D4A1D4B1B6843F4205313607C
:100490001A4A1A4B1B6A43F0EE631362174A174B52
:1004A0009B6843F420539360134A134B1B6C43F433
:1004B00000331364124B00229A81114A104B9B891E
:1004C0009BB243F06C039BB293810D4A0C4B1B898A
:1004D0009BB243F4D06343F003039BB21381262005
:1004E000FFF7B0FF064A064B9B899BB243F40053CB
:1004F0009BB2938180BD00BF00380240000C0240D7
:100500000044004080B483B000AF0346FB71094B48
:10051000FA7992B29A80084B01221A7000BF064BFA
:100520001B78DBB2002BFAD10C37BD465DF8047B9B
:10053000704700BF004400400400002080B582B036
:1005400000AF786007E07B681B781846FFF7DAFF9A
:100550007B6801337B607B681B78002BF3D1083705
:10056000BD4680BD80B400AF064B00221A70054B1B
:100570001B78DBB21A46044B00219954BD465DF846
:10058000047B7047050000200800002080B483B081
:1005900000AF254B1B889BB203F04003002B0BD010
:1005A000214A214B1B889BB223F040039BB213804E
:1005B0001E4B00221A7031E01B4B1B889BB203F0CC
:1005C0002003002B2AD0184A174B1B889BB223F01C
:1005D00020039BB21380144B9B889BB2FB71FB7969
:1005E0000A2B02D0FB790D2B03D1114B01221A707B
:1005F00014E0104B1B78DBB219460F4AFB795354B9
:100600000C4B1B78DBB20133DAB20A4B1A70094B80
:100610001B78DBB21A46084B002199540C37BD46B3
:100620005DF8047B704700BF0044004004000020D8
:1006300006000020050000200800002080B500AF63
:10064000494B1B78DBB2012B40F08C80464B0022DB
:100650001A704648464900F09FF80346002B19D10E
:100660004448FFF76BFF44484FF48051FFF78AFE80
:1006700041484FF40051FFF799FE3F484FF4804145
:10068000FFF794FE3C484FF40041FFF78FFEFFF761
:1006900069FF67E03548394900F07EF80346002BD2
:1006A00019D13748FFF74AFF33484FF48051FFF71D
:1006B0007DFE31484FF40051FFF764FE2E484FF4A1
:1006C0008041FFF773FE2C484FF40041FFF76EFEA8
:1006D000FFF748FF46E025482A4900F05DF8034649
:1006E000002B19D12848FFF729FF23484FF48051E8
:1006F000FFF75CFE20484FF40051FFF757FE1E48FD
:100700004FF48041FFF73EFE1B484FF40041FFF7D6
:100710004DFEFFF727FF25E014481C4900F03CF888
:100720000346002B19D11A48FFF708FF12484FF46F
:100730008051FFF73BFE10484FF40051FFF736FEA3
:100740000D484FF48041FFF731FE0B484FF4004154
:10075000FFF718FEFFF706FF04E00E48FFF7EEFE76
:10076000FFF700FF80BD00BF06000020080000204A
:10077000E8070008F0070008000C02400C08000819
:1007800014080008340800083C0800085408000851
:100790005C080008740800080F4B30B41D6802E0C4
:1007A000D21A16D1ABB110F8014B2B1922465B7847
:1007B00003F00303012B11F8013B08BF04F12002F1
:1007C000EC18647804F00304012CE9D12033D21A28
:1007D000E9D0104630BC704700000020506F7A64AA
:1007E0007261763A290A0D004C45564F0000000010
:1007F000506F7A64726176207361206C6576652033
:10080000737472616E65203A290A0D004445534E97
:100810004F000000506F7A6472617620736120642B
:1008200065736E6520737472616E65203A290A0DD6
:10083000000000004E41505245440000506F7A6461
:1008400072617620756E6170726564203A290A0DB6
:10085000000000004E415A4144000000506F7A648D
:1008600072617620752072696B76657263203A2911
:100870000A0D00004E652076616C6A61206F766F0C
:10088000206E69737461203A290A0D00002020202F
:100890002020202020202828282828202020202030
:1008A0002020202020202020202020202088101000
:1008B000101010101010101010101010100404045C
:1008C000040404040404041010101010101041411A
:1008D0004141414101010101010101010101010108
:1008E000010101010101010110101010101042421C
:1008F00042424242020202020202020202020202D8
:100900000202020202020202101010102000000077
:1009100000000000000000000000000000000000D7
:1009200000000000000000000000000000000000C7
:1009300000000000000000000000000000000000B7
:1009400000000000000000000000000000000000A7
:100950000000000000000000000000000000000097
:100960000000000000000000000000000000000087
:100970000000000000000000000000000000000077
:0D098000000000000000000000000000006A
:04098D008C080008CA
:0400000508000000EF
:00000001FF
